:100000005BC00000DBC700000C9405087DC0000049
:100010007BC0000079C0000077C0000073C70000FB
:1000200073C0000071C000006FC000006DC0000010
:100030006BC0000069C0000067C0000065C0000020
:100040000C942D0861C00000D0C4000000C5000061
:100050005BC0000059C0000057C0000055C0000040
:1000600048C1000051C00000020000000800020169
:10007000000003040700000000000000000102046B
:10008000081020408001020408102001020408101A
:100090002004040404040404040202020202020311
:1000A000030303030300000000250028002B0000C9
:1000B000C8034C05B805200B11241FBECFEFD8E0B4
:1000C000DEBFCDBF12E0A0E0B1E0E4E4F7E202C0A1
:1000D00005900D92AA38B107D9F724E0AAE8B2E05A
:1000E00001C01D92A138B207E1F710E0CCE5D0E0E5
:1000F00004C02197FE010E941611C835D107C9F727
:100100000E94170B0C94A0137BCF1092F70281E092
:100110008093F5021092F40261E082E10E944509A9
:1001200061E083E10E944509E9EBF0E080818E7F88
:10013000808380818D7F80838CE08093B80085E40C
:100140008093BC000895413208F043C09091F702BB
:100150009111FCCF91E09093F7022093F5022FEFDD
:1001600020938A021092CF02240F2093CE02909304
:10017000F6029091F602880F892B8093F602809107
:10018000F402813061F41092F4028091F6028093BF
:10019000BB008091BC0083FDF8CF85EC01C085EEEB
:1001A0008093BC008091F7028130E1F38091CF020F
:1001B000841710F44091CF0220ED32E0FB01D90109
:1001C0008A2F821B841718F48D918193F9CF842F85
:1001D000089580E008950F93413208F04AC090914D
:1001E000F7029111FCCF32E03093F7020093F50251
:1001F0003FEF30938A021092CF024093CE02FB0170
:1002000060ED72E0DB013A2F361B341718F43191A0
:100210003D93F9CF1092F6023091F602880F832BAE
:100220008093F6028091F402813061F41092F4021E
:100230008091F6028093BB008091BC0083FDF8CFD3
:1002400085EC01C085EE8093BC00222321F08091D3
:10025000F7028230D1F380918A028F3F79F080914A
:100260008A02803241F080918A02803331F094E03A
:1002700005C091E003C092E001C093E0892F0F9187
:1002800008954091AC02262F30E0240F311D213219
:100290003105DCF42091F7022430C9F4FC0180E040
:1002A00090E0861758F43091AC022191DC01A25500
:1002B000BD4FA30FB11D2C930196F3CF8091AC02DB
:1002C000680F6093AC0280E0089581E0089582E0B9
:1002D000089585ED8093BC008091BC0084FDFCCF27
:1002E0001092F702089585EC8093BC001092F702FB
:1002F00008951F920F920FB60F9211242F933F93E0
:100300004F935F936F937F938F939F93AF93BF931D
:10031000EF93FF938091B900887F803609F49DC0E8
:1003200070F5883209F45CC090F4803109F455C04E
:1003300038F4882309F4F3C0883009F44EC0F2C0C1
:10034000883109F44DC0803209F45EC0EBC08034BE
:1003500009F469C050F4803309F456C0883309F0B9
:10036000E1C080938A02BFDFDDC0803509F44FC051
:10037000883509F45DC0883409F0D4C0D2C088390A
:1003800009F4C3C0A8F4883709F467C038F4883684
:1003900009F463C0803709F460C0C4C0883809F428
:1003A000B4C0803909F45FC0803809F0BBC05BC0BD
:1003B000803B09F482C038F4803A09F466C0883A78
:1003C00009F47BC0AFC0803C09F4A3C0883C09F4A9
:1003D000A0C0883B09F486C0A5C08091F60210C079
:1003E0009091CF028091CE02981770F5E091CF02E4
:1003F00081E08E0F8093CF02F0E0E053FD4F8081CB
:100400008093BB0085EC82C080938A028AC0E09111
:10041000CF0281E08E0F8093CF028091BB00F0E08D
:10042000E053FD4F80839091CF028091CE026AC04D
:10043000E091CF0281E08E0F8093CF028091BB00CC
:10044000F0E0E053FD4F80838091F502811169C097
:1004500081E08093F40284EA5DC083E08093F70238
:1004600010928B02CFCF80918B02803208F04DC06A
:10047000E0918B0281E08E0F80938B028091BB0014
:10048000F0E0E457FD4F8083BDCF2DDF80918B02DC
:10049000803230F4E0918B02F0E0E457FD4F10829F
:1004A00060918B0270E0E091F002F091F1028CE833
:1004B00092E0099510928B0235C084E08093F70298
:1004C0001092AD021092AC02E091F202F091F302B0
:1004D00009958091AC02811105C081E08093AC0246
:1004E0001092AE02E091AD0281E08E0F8093AD02DA
:1004F000F0E0E255FD4F80818093BB009091AD020A
:100500008091AC02981708F47DCF85E88093BC00F9
:1005100009C085EC8093BC001092F70203C01092D2
:100520008A02D7DEFF91EF91BF91AF919F918F919A
:100530007F916F915F914F913F912F910F900FBEDF
:100540000F901F90189580E090E008958091280307
:1005500090E020912903821B91090895909129032D
:1005600080912803981750F4E92FF0E0E65DFC4FE6
:10057000208130E09F5F9093290302C02FEF3FEF6F
:10058000C9010895E091290380912803E81730F408
:10059000F0E0E65DFC4F808190E008958FEF9FEFE3
:1005A00008950895CF92DF92EF92FF920F931F93D9
:1005B000CF93DF937C01262F972F8A01809104032C
:1005C000882391F0C62FD72F6E01C40ED51ECC15EF
:1005D000DD0569F06991D701ED91FC910190F08101
:1005E000E02DC7010995F3CF642F822F4ADEC801A1
:1005F000DF91CF911F910F91FF90EF90DF90CF90FF
:100600000895CF93DF931F92CDB7DEB76983209112
:1006100004032223D1F020910503203240F021E091
:1006200030E0FC013383228380E090E014C08091AD
:100630000603E82FF0E0E95FFC4F998190838F5F1C
:10064000809306038093050304C061E0CE01019608
:1006500018DE81E090E00F90DF91CF910895FC01CA
:100660001382128288EE93E0A0E0B0E08483958349
:10067000A683B7838DE091E09183808308951092E3
:1006800029031092280310920603109205033DCD12
:1006900081E0809304036093270310920603109275
:1006A000050308950F93062F21E04091050367E0AD
:1006B00073E0809127038FDD1092060310920503EB
:1006C000109204030F9108954F925F926F927F9260
:1006D000AF92BF92CF92EF92FF920F931F93CF935F
:1006E000DF935C01F62ED42F28013901EE2011F1A1
:1006F000CFDFCE2DC43008F0C3E0C150C0F0D5012B
:10070000ED91FC91B8E0CB9FC0011124A3019201AF
:1007100004C056954795379527958A95D2F7CA0113
:10072000B9010190F081E02DC5010995E6CF60E0A7
:10073000C501B8DF4D2FD13208F040E22C2D6AE21E
:1007400073E08F2D00DD1092290380932803DF9141
:10075000CF911F910F91FF90EF90CF90BF90AF90EE
:100760007F906F905F904F900895CF92EF920F938C
:100770001F93C22EE12C00E010E09801A5DF1F912D
:100780000F91EF90CF90089521E0EFCF61E08ACFF5
:1007900088EF92E064CFFC01918D228D892F90E04B
:1007A000805C9F4F821B91098F7399270895FC01EC
:1007B000918D828D981731F0828DE80FF11D858D16
:1007C00090E008958FEF9FEF0895FC01918D828D49
:1007D000981761F0828DDF01A80FB11D5D968C9195
:1007E000928D9F5F9F73928F90E008958FEF9FEFA0
:1007F0000895FC01538D448D252F30E0842F90E027
:10080000821B930B541710F0CF960895019708950B
:10081000FC01848DDF01A80FB11DA35ABF4F2C919D
:10082000848D90E001968F739927848FA689B7896C
:100830002C93A089B1898C9180648C93938D848D45
:10084000981306C00288F389E02D80818F7D808314
:100850000895CF93DF93EC01888D8823C1F0EA8956
:10086000FB89808185FD05C0A889B9898C9186FDA9
:100870000EC00FB607FCF5CF808185FFF2CFA889A7
:10088000B9898C9185FFEDCFCE01C2DFE8CFDF9132
:10089000CF910895EF92FF920F931F93CF93DF9321
:1008A000EC0181E0888F9B8D8C8D981305C0E889C1
:1008B000F989808185FD23C0F62E0B8D10E00F5F36
:1008C0001F4F0F731127E02E8C8DE8120BC00FB64F
:1008D00007FCFACFE889F989808185FFF5CFCE0141
:1008E00097DFF2CF8B8DFE01E80FF11DE35AFF4F2A
:1008F000F0820B8FEA89FB898081806207C0EE89D4
:10090000FF896083E889F98980818064808381E040
:1009100090E0DF91CF911F910F91FF90EF9008959C
:10092000CF92DF92EF92FF921F93CF93DF93EC0170
:100930006A017B01122FE889F98982E080834115E1
:10094000514E61057105B1F060E079E08DE390E012
:10095000A70196010E94CE10DA01C9010197A109F1
:10096000B109B695A79597958795AC01411580E19A
:100970005807A8F0E889F989108260E874E88EE1E8
:1009800090E0A70196010E94CE10BA01A901415042
:100990005109610971097695679557954795EC85D9
:1009A000FD855083EE85FF854083188EEC89FD8997
:1009B0001083EA89FB89808180618083EA89FB89D1
:1009C000808188608083EA89FB8980818068808358
:1009D000EA89FB8980818F7D8083DF91CF911F9190
:1009E000FF90EF90DF90CF9008951F920F920FB677
:1009F0000F9211242F938F939F93EF93FF93E09186
:100A00005A03F0915B038081E0916003F0916103F0
:100A100082FD12C09081809163038F5F8F7320915C
:100A20006403821751F0E0916303F0E0E65BFC4F52
:100A3000958F8093630301C08081FF91EF919F9117
:100A40008F912F910F900FBE0F901F9018951F92AE
:100A50000F920FB60F9211242F933F934F935F93F2
:100A60006F937F938F939F93AF93BF93EF93FF9376
:100A70008AE493E0CDDEFF91EF91BF91AF919F911A
:100A80008F917F916F915F914F913F912F910F9037
:100A90000FBE0F901F901895EAE4F3E013821282C4
:100AA00088EE93E0A0E0B0E084839583A683B783CB
:100AB0008FE191E09183808385EC90E09587848736
:100AC00084EC90E09787868780EC90E0918B808B18
:100AD00081EC90E0938B828B82EC90E0958B848B01
:100AE00086EC90E0978B868B118E128E138E148E6F
:100AF00008958F929F92AF92BF92CF92DF92EF9222
:100B0000FF920F931F93CF93DF937C018B016C01B6
:100B100082E0C80ED11C4701E5E08E0E911CC0E0BA
:100B2000D0E0F60161916F014AE050E0C801D2D0F7
:100B30005C016EE2C80168D08A0D9B1DC80FD91FE9
:100B4000C814D90471F74AE050E0F7016581C80183
:100B5000C1D08C0F9D1FDF91CF911F910F91FF90FE
:100B6000EF90DF90CF90BF90AF909F908F900895BF
:100B7000E7EEF3E081E391E09183808312821382B8
:100B8000148215820895CF92DF92EF92FF920F9315
:100B90001F93CF93DF936C017A018B01C0E0D0E00B
:100BA000CE15DF0589F0D8016D918D01D601ED914B
:100BB000FC910190F081E02DC6010995892B11F47B
:100BC0007E0102C02196ECCFC701DF91CF911F912A
:100BD0000F91FF90EF90DF90CF9008956115710510
:100BE00079F0FB0101900020E9F73197AF01461B36
:100BF000570BDC01ED91FC910280F381E02D09940B
:100C000080E090E00895EACFDC01ED91FC91019045
:100C1000F081E02D09948F929F92AF92BF92CF9274
:100C2000DF92EF92FF920F931F93CF93DF93CDB795
:100C3000DEB7A1970FB6F894DEBF0FBECDBF7C0123
:100C4000D42EC52EDB0119A2223008F42AE08E0131
:100C50000F5D1F4F822E912CA12CB12C6D2D7C2D60
:100C6000CD01A50194010E94CE10D22EC32EDA012F
:100C7000015011096A3071058105910510F4605D1C
:100C800001C0695CF8016083232B242B252B31F7ED
:100C9000B801C701A3DFA1960FB6F894DEBF0FBE5F
:100CA000CDBFDF91CF911F910F91FF90EF90DF901B
:100CB000CF90BF90AF909F908F90089521153105F0
:100CC00041F4DC01ED91FC910190F081E02D642F65
:100CD0000994A1CF9A01462F50E060E070E0EECF7A
:100CE0004F925F926F927F928F929F92AF92BF923C
:100CF000CF92DF92EF92FF92CF93DF93EC016A01E4
:100D00007B01B22E9A01AB01C701B6010E944113CB
:100D1000882319F066E371E027C026013701E894C3
:100D200077F82FEF3FEF4FE75FE7C301B2010E9473
:100D3000411381110DC02FEF3FEF4FE75FE7C30174
:100D4000B2010E94901118161CF46AE371E00CC005
:100D50002FEF3FEF4FE75FE4C701B6010E94DA12C1
:100D6000181694F46EE371E0CE01DF91CF91FF90FD
:100D7000EF90DF90CF90BF90AF909F908F907F903B
:100D80006F905F904F902ACF2FEF3FEF4FE75FECD0
:100D9000C701B6010E94901187FDE4CF20E030E04A
:100DA000A901C701B6010E94901187FF09C06DE239
:100DB000CE012ADF4C01F7FAF094F7F8F09402C064
:100DC000812C912CA12C60E070E080E09FE3AB14BB
:100DD00041F020E030E040E251E40E949411A394FD
:100DE000F6CF9B01AC01C701B6010E942C112B016B
:100DF0003C010E94FC116B017C010E9428129B01A6
:100E0000AC01C301B2010E942B112B013C012AE06D
:100E1000B701A601CE01FFDE7C01E80CF91CBB2066
:100E200029F06EE2CE01F0DEE80EF91EDB2CDD20AB
:100E300021F120E030E040E251E4C301B2010E9420
:100E4000DE122B013C010E94FC114B01A12CB12CA4
:100E50002AE0B501A401CE01DEDEE80EF91EC501CF
:100E6000B4010E9428129B01AC01C301B2010E948F
:100E70002B112B013C01DA94DACFC701DF91CF911E
:100E8000FF90EF90DF90CF90BF90AF909F908F90AA
:100E90007F906F905F904F90089522CF813039F00E
:100EA00018F0823051F0089510926E0008958091EC
:100EB0006F008D7F80936F000895809170008D7F0B
:100EC0008093700081E08093B0008091B100887FB2
:100ED00084608093B1001092B3000895CF93C82F1F
:100EE000809104018C1307C0E8E6F0E0E4918FEFF5
:100EF0008093040101C0EFEF8E2FD0DF60E08C2FD4
:100F0000CF91C3C11F920F920FB60F9211242F934E
:100F10003F934F935F936F937F938F939F93AF9381
:100F2000BF93EF93FF938091F0039091F103A09111
:100F3000F203B091F303892B8A2B8B2B51F1809113
:100F4000ED03E091EE03F091EF0390818927808318
:100F50008091F0039091F103A091F203B091F3031B
:100F6000181619061A061B06BCF48091F00390911E
:100F7000F103A091F203B091F3030197A109B10924
:100F80008093F0039093F103A093F203B093F303E3
:100F900003C080910401A2DFFF91EF91BF91AF9157
:100FA0009F918F917F916F915F914F913F912F9181
:100FB0000F900FBE0F901F90189508951F920F92DB
:100FC0000FB60F9211242F933F934F935F936F931C
:100FD0007F938F939F93AF93BF93EF93FF93E09192
:100FE0000501F09106010995FF91EF91BF91AF9135
:100FF0009F918F917F916F915F914F913F912F9131
:101000000F900FBE0F901F9018951F920F920FB662
:101010000F9211242F933F934F935F936F937F937E
:101020008F939F93AF93BF93EF93FF93E09107014B
:10103000F09108010995FF91EF91BF91AF919F91B8
:101040008F917F916F915F914F913F912F910F9071
:101050000FBE0F901F90189508951F920F920FB614
:101060000F9211242F933F938F939F93AF93BF932E
:101070008091F5039091F603A091F703B091F803E6
:101080003091F40323E0230F2D3720F40196A11DA6
:10109000B11D05C026E8230F0296A11DB11D2093A6
:1010A000F4038093F5039093F603A093F703B093B2
:1010B000F8038091F9039091FA03A091FB03B0919A
:1010C000FC030196A11DB11D8093F9039093FA03CF
:1010D000A093FB03B093FC03BF91AF919F918F91BD
:1010E0003F912F910F900FBE0F901F9018952FB723
:1010F000F8946091F5037091F6038091F703909155
:10110000F8032FBF08953FB7F8948091F9039091A9
:10111000FA03A091FB03B091FC0326B5A89B05C080
:101120002F3F19F00196A11DB11D3FBFBA2FA92F66
:10113000982F8827820F911DA11DB11DBC01CD01E3
:1011400042E0660F771F881F991F4A95D1F70895CF
:101150008F929F92AF92BF92CF92DF92EF92FF92C7
:101160006B017C01D0DF4B015C01C114D104E104AF
:10117000F104F1F071DFC7DFDC01CB0188199909B7
:10118000AA09BB09883E9340A105B10570F321E08F
:10119000C21AD108E108F10888EE880E83E0981E93
:1011A000A11CB11CC114D104E104F10421F7DDCF6D
:1011B000FF90EF90DF90CF90BF90AF909F908F9077
:1011C0000895789484B5826084BD84B5816084BDBF
:1011D00085B5826085BD85B5816085BDEEE6F0E0B0
:1011E000808181608083E1E8F0E01082808182600C
:1011F0008083808181608083E0E8F0E0808181608D
:101200008083E1EBF0E0808184608083E0EBF0E0BC
:10121000808181608083EAE7F0E080818460808360
:10122000808182608083808181608083808180680A
:1012300080831092C1000895833081F028F48130BA
:1012400099F08230A1F008958730A9F08830B9F084
:101250008430D1F4809180008F7D03C08091800024
:101260008F7780938000089584B58F7702C084B50E
:101270008F7D84BD08958091B0008F7703C08091E9
:10128000B0008F7D8093B00008951F93CF93DF93BC
:10129000282F30E0F901E759FF4F8491F901E35815
:1012A000FF4FD491F901EF56FF4FC491CC23C1F009
:1012B000162F8111C1DFEC2FF0E0EE0FFF1FEB5571
:1012C000FF4FA591B4918FB7F894111105C09C916F
:1012D000ED2FE095E92302C0EC91ED2BEC938FBF4D
:1012E000DF91CF911F910895DC01ED91FC91019068
:1012F000F081E02D0994FF920F931F93CF93DF931A
:10130000EC01F62E8A016A8188819981C1D9888190
:101310009981DC01ED91FC910190F081E02D6F2D20
:101320000995612F70E088819981DEDFB801772708
:1013300088819981D9DF88819981DF91CF911F912F
:101340000F91FF9023CAFF920F931F93CF93DF93C8
:10135000EC01F62E8A016A818881998199D9888168
:101360009981DC01ED91FC910190F081E02D6F2DD0
:101370000995888199810ADA61E070E080E090E067
:10138000E7DE42E06A8188819981FED9888199816E
:10139000DC01ED91FC910284F385E02D0995F82E96
:1013A00088819981DC01ED91FC910284F385E02D27
:1013B000099520E030E03F2D822B932BF80191839B
:1013C0008083DF91CF911F910F91FF900895CF936C
:1013D000DF93EC0180E090E1A0E0B0E08B839C83A0
:1013E000AD83BE838AE090E0A0E0B0E08F83988771
:1013F000A987BA8780E090E0A0E0B0E48B879C8763
:10140000AD87BE8740E050E165E0CE0174DF4FE973
:1014100059E360E0CE01DF91CF916DCFCF93DF93A1
:10142000EC0180E098E2A0E0B0E08B839C83AD8388
:10143000BE8389E190E0A0E0B0E08F839887A98720
:10144000BA878DEC9CECACE4BFE38B879C87AD87BF
:10145000BE8740E058E265E0CE014DDF4FE959E339
:1014600060E0CE01DF91CF9146CFFC01628317820D
:1014700010861186128613861486158616860895A0
:10148000CF93DF93EC0188819981F9D8CE01DF9168
:10149000CF919DCF28EF32E0FC0131832083F0CF44
:1014A000CF93DF9300D0CDB7DEB7AE014F5F5F4F74
:1014B00062E049DF89819A8123E0969587952A9594
:1014C000E1F7880F991F880F991F0F900F90DF91F8
:1014D000CF910895CF93DF9300D0CDB7DEB7AE01A3
:1014E0004F5F5F4F61E02FDF89819A810F900F90EE
:1014F000DF91CF9108950F931F93CF93DF9300D087
:10150000CDB7DEB78C01FC014381548165E0F3DE89
:10151000AE014F5F5F4F64E0C80115DF89819A819A
:101520000F900F90DF91CF911F910F9108950F931E
:101530001F93CF93DF9300D0CDB7DEB78C01FC01B2
:101540004381548165E0D7DEAE014F5F5F4F63E0BA
:10155000C801F9DE89819A810F900F90DF91CF91B8
:101560001F910F910895B6DFBC01990F880B990B5D
:1015700071D72AE037ED43E25CE30C94DE12089564
:101580008FDFBC01990F880B990B64D72FE632E1EE
:1015900043E85AE30C94DE120895CF92DF92EF9263
:1015A000FF92CF93DF93EC01A6DFBC01990F880B6C
:1015B000990B50D76B017C016F81788589859A855D
:1015C00047D79B01AC01C701B601AED6DF91CF91E1
:1015D000FF90EF90DF90CF900895CF93DF93EC01D1
:1015E000A6DFBC01990F880B990B34D72B853C855E
:1015F0004D855E85E3D7DF91CF91089526E040E0E9
:1016000052EC61E070E08AE493E08AD98CE694E0E1
:1016100065D58CE694E07CD58DE694E03BDF8DE6E5
:1016200094E0FCDE789408958DEF93E065C3C9DD06
:10163000E5DF60EA7FE080E090E08ADDF5DFFECF65
:1016400060E48DE694E011DF8CE694E046D54DE64B
:1016500054E06CE674E08DEF93E000C0FC01DC0127
:10166000A659BF4F11967C936E9314961C921486C4
:1016700015861686178610861186128613861482A2
:10168000158216821782108A118A128A138A12977B
:101690004D935C93148A158A84EA90E7ADE7BFE323
:1016A00080839183A283B3830895FC01108A118AF9
:1016B000128A138A1086118612861386148615865E
:1016C000168617861482158216821782148A84EA77
:1016D00090E7ADE7BFE380839183A283B383DF010B
:1016E0005A96CF0182599F4F14961D921D921D92BA
:1016F0001C92179718961D921D921D921C921B9773
:101700001C961D921D921D921C921F9754961D921D
:101710001D921D921C92579750961D921D921D92DC
:101720001C9253971D921D921D921C9213975C96CA
:10173000A817B907C9F680E090E0A6E9B2E4868B65
:10174000978BA08FB18F80E090E0A8E4B2E482ABE9
:1017500093ABA4ABB5ABE25BFF4F80E090E0ACE0B5
:10176000B2E480839183A283B3830895CF93DF9300
:10177000EC01809180048111D8C062E471E08AE4B8
:1017800093E041DA6CE471E08AE493E03CDA6EE4E1
:1017900071E08AE493E037DA6CE471E08AE493E084
:1017A00032DA6EE571E08AE493E02DDA6CE471E000
:1017B0008AE493E028DA6DE671E08AE493E023DAC4
:1017C0006CE471E08AE493E01EDA6DE771E08AE48C
:1017D00093E019DA6CE471E08AE493E014DA6BE8E0
:1017E00071E08AE493E00FDA6CE471E08AE493E05C
:1017F0000ADA6CE971E08AE493E005DA6CE471E0FE
:101800008AE493E000DA6DEA71E08AE493E0FBD9C0
:101810006CE471E08AE493E0F6D96CEB71E08AE461
:1018200093E0F1D96CE471E08AE493E0ECD96CECDC
:1018300071E08AE493E0E7D96CE471E08AE493E034
:10184000E2D96AED71E08AE493E0DDD96CE471E0FD
:101850008AE493E0D8D96BEE71E08AE493E0D3D9BF
:101860006CE471E08AE493E0CED96CEF71E08AE435
:1018700093E0C9D96CE471E08AE493E0C4D96BE0E9
:1018800072E08AE493E0BFD96CE471E08AE493E00B
:10189000BAD96BE172E08AE493E0B5D96CE471E007
:1018A0008AE493E0B0D969E272E08AE493E0ABD9CC
:1018B0006CE471E08AE493E0A6D96AE372E08AE41A
:1018C00093E0A1D96CE471E08AE493E09CD96BE4E5
:1018D00072E08AE493E097D96CE471E08AE493E0E3
:1018E00092D96AE572E08AE493E08DD96CE471E004
:1018F0008AE493E088D968E672E08AE493E083D9C9
:101900006CE471E08AE493E07ED968E772E08AE4EF
:1019100093E079D964E371E08AE493E074D981E0DB
:1019200080938004DF91CF910895E1DBAB01BC018E
:101930002AE030E08AE493E0C1D96CE471E08AE403
:1019400093E061D94AE050E06C898AE493E0C2D91F
:101950006CE471E08AE493E056D94E8D5F8D68A106
:1019600079A122E030E08AE493E097DA6CE471E058
:101970008AE493E048D94AA15BA16CA17DA122E051
:1019800030E08AE493E089DA6CE471E08AE493E081
:101990003AD94EA15FA168A579A522E030E08AE49A
:1019A00093E07BDA6CE471E08AE493E02CD94AA5F9
:1019B0005BA56CA57DA522E030E08AE493E06DDABA
:1019C0006CE471E08AE493E01ED94E895F89688DEA
:1019D000798D22E030E08AE493E05FDA6CE471E034
:1019E0008AE493E010D94AAD5BAD6CAD7DAD22E0E9
:1019F00030E08AE493E051DA6CE471E08AE493E049
:101A000002D9FE01FE96408151816281738122E0FC
:101A100030E08AE493E041DA6CE471E08AE493E038
:101A2000F2D8FE01EE5BFF4F4081518162817381EC
:101A300022E030E08AE493E030DA6CE471E08AE49A
:101A400093E0E1D8FE01EA5BFF4F40815181628162
:101A5000738122E030E08AE493E01FDA6CE471E005
:101A60008AE493E0D0D84AA95BA96CA97DA922E0B9
:101A700030E08AE493E011DA6CE471E08AE493E008
:101A8000C2D8FE01EA5AFF4F4081518162817381C1
:101A900022E030E08AE493E000DA6CE471E08AE46A
:101AA00093E0B1D8FE01E65AFF4F40815181628137
:101AB000738122E030E08AE493E0EFD96CE471E0D6
:101AC0008AE493E0A0D8FE01E25AFF4F40815181A1
:101AD0006281738122E030E08AE493E0DED96CE435
:101AE00071E08AE493E08FD8FE01EE59FF4F408108
:101AF00051816281738122E030E08AE493E0CDD9A4
:101B00006CE471E08AE493E07ED8FE01E25BFF4F73
:101B1000408151816281738122E030E08AE493E068
:101B2000BCD96CE471E08AE493E06DD84C855D85A6
:101B30006E857F8522E030E08AE493E0AED96CE4E4
:101B400071E08AE493E05FD84C815D816E817F8192
:101B500022E030E08AE493E0A0D96CE471E08AE40A
:101B600093E051D8488959896A897B8922E030E01D
:101B70008AE493E092D96CE471E08AE493E043D87C
:101B80004AE050E06D898AE493E0A4D864E371E010
:101B90008AE493E0DF91CF9136C82F923F924F9223
:101BA0005F926F927F928F929F92AF92BF92CF92ED
:101BB000DF92EF92FF920F931F93CF93DF93CDB7F6
:101BC000DEB728970FB6F894DEBF0FBECDBF1C015D
:101BD0007E836D8304E110E0C12CD12C76012601B7
:101BE0003701460157019C0124593F4F38872F8305
:101BF000EF81F88580819181D0DC9B01AC01C5012A
:101C0000B4012AD34B015C01EF81F8858081918179
:101C1000E4DC9B01AC01C701B6011ED36B017C0162
:101C2000EF81F88580819181ABDC69837A838B8336
:101C30009C83EF81F8858081918195DC20E030E004
:101C40004AE754E471D39B01AC0169817A818B81AD
:101C50009C8102D39B01AC01C301B201FDD22B01D7
:101C60003C010150110909F0C3CF8CE12D813E8167
:101C7000829FA001839F500D1124240E351E20E069
:101C800030E040EA51E4C301B2014ED3F101668F66
:101C9000778F80A391A320E030E040EA51E4C501B2
:101CA000B40142D3F10162A373A384A395A320E0FE
:101CB00030E040EA51E4C701B60136D3F10166A332
:101CC00077A380A791A728960FB6F894DEBF0FBE22
:101CD000CDBFDF91CF911F910F91FF90EF90DF90DB
:101CE000CF90BF90AF909F908F907F906F905F90BC
:101CF0004F903F902F9008952F923F924F925F9276
:101D00006F927F928F929F92AF92BF92CF92DF920B
:101D1000EF92FF920F931F93CF93DF93EC017C011F
:101D20004EE6E40EF11CF7018081823059F18330D8
:101D300009F456C1813021F0CE01B7DC81E0B2C197
:101D40006E0100E010E05E01FAE6AF0EB11CF60194
:101D500046895789608D718DF50180819181DED131
:101D60006AE070E080E090E0F3D9B801CE0115DFC1
:101D70000F5F1F4FFCE1CF0ED11C0330110539F767
:101D800082E090C18C89823308F013C18E010A5E13
:101D90001F4F6E01FAE6CF0ED11C412C512C80E86A
:101DA000682E8FE3782E2224239493E0392EF801B5
:101DB00080889188A288B388248935894689578983
:101DC000C501B401F7D318166CF4F801848A958A1A
:101DD000A68AB78A80819181A281B381808F918FF9
:101DE000A28FB38F2C813D814E815F81C501B401EB
:101DF000E1D31816F4F41D8AF80180859185A28537
:101E0000B3858C879D87AE87BF8784859585A6859A
:101E1000B78588879987AA87BB878C829D82AE8287
:101E2000BF8280819181A281B381888B998BAA8B9B
:101E3000BB8B288139814A815B81F801648175817E
:101E400086819781BBD3F8016483758386839783EA
:101E500063D4BC01990F880B990BFCD220E03EEFB4
:101E60004FEF56E461D24B015C01F80120813181D2
:101E700042815381608D718D828D938DECD19B0158
:101E8000AC01C501B4019AD39B01AC01F801648196
:101E9000758186819781E0D1F8016483758386839B
:101EA00097833AD4BC01990F880B990BD3D220E0C9
:101EB0003EEF4FEF56E438D24B015C01F801208130
:101EC000318142815381688979898A899B89C3D10B
:101ED0009B01AC01C501B40171D3F80124813581A6
:101EE00046815781B9D1F8016483758386839783CE
:101EF0002081318142815381AFD14B015C0120E0CF
:101F000030E040E050E40CD287FF06C0F801408288
:101F100051826282738218C020E030E04EEB52E4BE
:101F2000C501B40147D3181634F0F80180829182BC
:101F3000A282B38209C080E090E0AEEBB2E4F80187
:101F400080839183A283B383F801208931894289F8
:101F500053896C817D818E819F817DD120E030E02D
:101F600040EA51E4DDD187FF0AC08D898F5F83305D
:101F700010F48D8B04C01D8AF701308202C0F70176
:101F80002082045E1F4F0C151D0509F010CF26E6B8
:101F900036E646E65FE3688179818A819B810ED3CC
:101FA000688379838A839B838C898F5F8C8B1D8A5E
:101FB00003C083E0F7018083CE01DF91CF911F91B1
:101FC0000F91FF90EF90DF90CF90BF90AF909F90D8
:101FD0008F907F906F905F904F903F902F90C6CBE7
:101FE000488959896A897B89FE01E659FF4F8081BA
:101FF000918194D07CD800917C0410917D04209133
:102000007E0430917F045B016C01A01AB10AC20A00
:10201000D30A49EEA41643E0B406C104D10408F47F
:1020200049C060937C0470937D0480937E049093F8
:102030007F0404E110E0812C912C54016E018CE6A8
:10204000C80ED11CF60180819181C7DA9B01AC01D9
:10205000C501B40101D14B015C010150110991F797
:1020600020E030E040EA51E45FD12B013C018C805C
:102070009D80AE80BF80A50194019CD21816ACF45F
:10208000A5019401C301B201E6D0A50194014CD190
:102090002DEC3CEC4CEC5DE38DD2181614F484E08E
:1020A00001C083E0F701808305C0A3019201C5014F
:1020B000B401EACFDF91CF911F910F91FF90EF9084
:1020C000DF90CF90BF90AF909F908F907F906F9058
:1020D0005F904F903F902F9008950895539A8FE905
:1020E0008093B3008FE48093B400A0EBB0E01C9227
:1020F000E1EBF0E010828C9180628C938C91836094
:102100008C93808188608083808181608083089542
:10211000E1EBF0E08081816080830895CF92DF92CF
:10212000EF92FF926A017B0120E030E040EA50E448
:10213000C701B601F5D087FD10C020E030E04EEBBE
:1021400052E4C701B60136D218166CF4C12CD12C5A
:102150009EEBE92E92E4F92E06C0C12CD12C80EA28
:10216000E82E80E4F82E8091B30090E00196BC0147
:10217000990F880B990B6ED19B01AC01C701B60179
:102180001DD220E030E048EC52E4CED035D160934F
:10219000B400FF90EF90DF90CF900895A1E21A2E47
:1021A000AA1BBB1BFD010DC0AA1FBB1FEE1FFF1FFB
:1021B000A217B307E407F50720F0A21BB30BE40B4B
:1021C000F50B661F771F881F991F1A9469F7609592
:1021D0007095809590959B01AC01BD01CF0108954C
:1021E000052E97FB16F400940FD057FD05D0D6DFCF
:1021F00007FC02D046F408C05095409530952195D3
:102200003F4F4F4F5F4F0895909580957095619522
:102210007F4F8F4F9F4F08950FD0A59F900DB49F74
:10222000900DA49F800D911D11240895EE0FFF1FA6
:102230000590F491E02D0994A29FB001B39FC001D5
:10224000A39F700D811D1124911DB29F700D811DE2
:102250001124911D08955058BB27AA270ED070C194
:1022600061D130F066D120F031F49F3F11F41EF4BB
:1022700056C10EF4E095E7FB4CC1E92F72D180F313
:10228000BA17620773078407950718F071F49EF573
:102290008AC10EF4E0950B2EBA2FA02D0B01B901C7
:1022A00090010C01CA01A0011124FF27591B99F0CC
:1022B000593F50F4503E68F11A16F040A22F232FD8
:1022C000342F4427585FF3CF469537952795A79528
:1022D000F0405395C9F77EF41F16BA0B620B730BCF
:1022E000840BBAF09150A1F0FF0FBB1F661F771F40
:1022F000881FC2F70EC0BA0F621F731F841F48F4F5
:10230000879577956795B795F7959E3F08F0B3CF7A
:102310009395880F08F09927EE0F97958795089564
:10232000D4D008F481E008950CD00AC102D140F065
:10233000F9D030F021F45F3F19F0EBC0511134C1F6
:10234000EEC00FD198F39923C9F35523B1F3951B30
:10235000550BBB27AA2762177307840738F09F5FC6
:102360005F4F220F331F441FAA1FA9F333D00E2E35
:102370003AF0E0E830D091505040E695001CCAF7A2
:1023800029D0FE2F27D0660F771F881FBB1F261767
:1023900037074807AB07B0E809F0BB0B802DBF013A
:1023A000FF2793585F4F2AF09E3F510568F0B1C058
:1023B000FBC05F3FECF3983EDCF38695779567951D
:1023C000B795F7959F5FC9F7880F911D96958795EB
:1023D00097F90895E1E0660F771F881FBB1F62170A
:1023E00073078407BA0720F0621B730B840BBA0BC8
:1023F000EE1F88F7E0950895BCD088F09F5790F0C5
:10240000B92F9927B751A0F0D1F0660F771F881F19
:10241000991F1AF0BA95C9F712C0B13081F0C3D034
:10242000B1E00895C0C0672F782F8827B85F39F0D2
:10243000B93FCCF3869577956795B395D9F73EF478
:1024400090958095709561957F4F8F4F9F4F089520
:10245000E89409C097FB3EF490958095709561953E
:102460007F4F8F4F9F4F9923A9F0F92F96E9BB27F4
:102470009395F695879577956795B795F111F8CF70
:10248000FAF4BB0F11F460FF1BC06F5F7F4F8F4FDB
:102490009F4F16C0882311F096E911C0772321F0D1
:1024A0009EE8872F762F05C0662371F096E8862F69
:1024B00070E060E02AF09A95660F771F881FDAF7C0
:1024C000880F9695879597F90895990F0008550FED
:1024D000AA0BE0E8FEEF16161706E807F907C0F0AA
:1024E00012161306E407F50798F0621B730B840BB2
:1024F000950B39F40A2661F0232B242B252B21F48C
:1025000008950A2609F4A140A6958FEF811D811D2B
:10251000089597F99F6780E870E060E008959FEF65
:1025200080EC089500240A9416161706180609066A
:10253000089500240A941216130614060506089539
:10254000092E0394000C11F4882352F0BB0F40F4C1
:10255000BF2B11F460FF04C06F5F7F4F8F4F9F4F01
:10256000089557FD9058440F551F59F05F3F71F083
:102570004795880F97FB991F61F09F3F79F08795EA
:102580000895121613061406551FF2CF4695F1DF73
:1025900008C0161617061806991FF1CF8695710503
:1025A000610508940895E894BB2766277727CB0137
:1025B00097F908958ADF08F48FEF08950BD0C0CF04
:1025C000B1DF28F0B6DF18F0952309F0A2CFA7CF2E
:1025D0001124EACFC6DFA0F3959FD1F3950F50E009
:1025E000551F629FF001729FBB27F00DB11D639FC5
:1025F000AA27F00DB11DAA1F649F6627B00DA11D6B
:10260000661F829F2227B00DA11D621F739FB00D10
:10261000A11D621F839FA00D611D221F749F332780
:10262000A00D611D231F849F600D211D822F762F19
:102630006A2F11249F5750408AF0E1F088234AF016
:10264000EE0FFF1FBB1F661F771F881F9150504062
:10265000A9F79E3F510570F05CCFA6CF5F3FECF32A
:10266000983EDCF3869577956795B795F795E7954E
:102670009F5FC1F7FE2B880F911D9695879597F95F
:10268000089523DF880B990B08958F929F92AF9244
:10269000BF92CF92DF92EF92FF92CF93DF93EC0144
:1026A000688179818A819B81611571058105910518
:1026B00021F464E279ED8BE597E02DE133EF41E021
:1026C00050E08EDD49015A019B01AC01A7EAB1E45B
:1026D000A3DD6B017C01ACEEB4EFA50194012CD01D
:1026E000DC01CB018C0D9D1DAE1DBF1DB7FF03C0CE
:1026F0000197A109B04888839983AA83BB839F77F8
:10270000DF91CF91FF90EF90DF90CF90BF90AF908F
:102710009F908F900895B9CF80E091E0B6CFA0E070
:10272000B0E08093000190930101A0930201B09367
:1027300003010895B7FF70CD6FDD821B930B0895E1
:04274000F894FFCF3B
:1027440001000000FFDD07DD07000000000103D2E7
:1027540002A302D102A602AE02C202000000004A95
:1027640004C305F9032904CB03E503D703000000E0
:102774000079050D0A006E616E00696E66006F7661
:10278400660074696D6520286D7329002C006974D6
:1027940065726174696F6E20636F756E7400503179
:1027A4005F566F6C74616765202876290050315F2D
:1027B40043757272656E7420286D41290050315F33
:1027C400506F77657220286D57290050315F6C6215
:1027D4005F706F77657220286D57290050315F64F0
:1027E4007574796379636C65202825290050325FFC
:1027F400566F6C74616765202876290050325F43F8
:10280400757272656E7420286D41290050325F50D4
:102814006F77657220286D57290050325F6C625FB4
:10282400706F77657220286D57290050325F647588
:1028340074796379636C65202825290050335F56C9
:102844006F6C74616765202876290050335F437587
:102854007272656E7420286D41290050335F506F89
:1028640077657220286D57290050335F6C625F7062
:102874006F77657220286D57290050335F64757433
:10288400796379636C65202825290047625F566F58
:102894006C74616765202876290047625F506F7702
:1028A400657220286D572900475F647574796379D0
:1028B400636C652028252900436F6E766572676511
:0A28C4006E63655F636F756E74004C
:00000001FF
